:100000000C9453020C947B020C947B020C947B02A4
:100010000C947B020C947B020C947B020C947B026C
:100020000C947B020C947B020C947B020C947B025C
:100030000C947B020C947B020C947B020C947B024C
:100040000C941E110C947B020C943C0F0C946E0FBC
:100050000C947B020C947B020C947B020C947B022C
:100060000C947B020C947B020C947B020C947B021C
:100070000C947B020C947B020C947B020C947B020C
:100080000C947B020C947B020C947B020C947B02FC
:100090000C947B020C947B020C947B020C947B02EC
:1000A0000C947B020C947B020C947B020C947B02DC
:1000B0000C947B02524632342F6578616D706C650A
:1000C000732F47657474696E6753746172746564E5
:1000D00000726164696F2068617264776172652083
:1000E0006973206E6F7420726573706F6E64696ED1
:1000F000672121005061636B6574207472616E73B7
:100100006D697373696F6E206661696C65642E003A
:100110000A0B0C0D0E0F00010203040500007069AC
:100120007065202575202825532920626F756E641F
:1001300000545820616464726573730900507269D9
:100140006D617279204D6F646509093D2025635802
:100150000D0A004175746F2041636B6E6F776C659B
:1001600064676D656E74093D2030622563256325E3
:10017000632563256325630D0A004175746F204173
:10018000636B6E6F776C6564676D656E740925537C
:100190000D0A0044796E616D6963205061796C6F5E
:1001A0006164730925530D0A00437573746F6D20E4
:1001B00041434B205061796C6F61640925530D0AEE
:1001C000004D756C746963617374090925530D0AD8
:1001D00000526574727920617474656D7074732057
:1001E0006D61646520666F720A202020206C617347
:1001F00074207472616E736D697373696F6E093DFB
:100200002025640D0A005061636B657473206C6F68
:100210007374206F6E0A2020202063757272656EE1
:1002200074206368616E6E656C093D2025640D0A5B
:10023000004175746F205265747279204174746541
:100240006D707473093D202564206D6178696D754A
:100250006D0D0A004175746F2052657472792044E7
:10026000656C6179093D202564206D6963726F7347
:1002700065636F6E64730D0A005374617469632063
:100280005061796C6F6164204C656E677468093DDC
:100290002025642062797465730D0A0041646472DC
:1002A000657373204C656E67746809093D20256489
:1002B0002062797465730D0A00435243204C656EC9
:1002C000677468090925530D0A005246204C6F7760
:1002D000204E6F69736520416D706C696669657247
:1002E0000925530D0A00524620506F776572204150
:1002F0006D706C69666965720925530D0A00524676
:1003000020446174612052617465090925530D0A06
:10031000004D6F64656C0909093D2025530D0A00E5
:100320004368616E6E656C0909093D2025752028BA
:100330007E202575204D487A290D0A00535049200A
:100340004672657175656E637909093D20256420E3
:100350004D687A0A00C70377036D035F0366036382
:100360006C6F73656400206F70656E20003D2041E6
:100370006C6C6F776564003D20456E61626C6564EE
:1003800000A5039C03920389033D2050415F4D412A
:1003900058003D2050415F48494748003D205041AA
:1003A0005F4C4F57003D2050415F4D494E00C70301
:1003B000BE03B4033D2031362062697473003D20D2
:1003C000382062697473003D2044697361626C6512
:1003D0006400E003D6036E524632344C30312B00B9
:1003E0006E524632344C3031000304FA03EF033DC1
:1003F00020323530204B425053003D2032204D42B8
:100400005053003D2031204D425053000D0A00252D
:1004100030327800203078002553093D000D0A0065
:1004200020307825303278002553093D000A0D0E22
:10043000090003020000040508000000000000009D
:1004400000000000000000000102040810204080AD
:10045000010204081020010204081020408040011D
:100460000204080404040404040404020202020254
:10047000020303030303030202030505050500004D
:1004800000002300260029002C00000000002500A9
:1004900028002B002E0000000000240027002A0066
:1004A0002D008C039E0F11241FBECFEFD8E0DEBFBE
:1004B000CDBF11E0A0E0B1E0E0EAFFE202C00590AC
:1004C0000D92A037B107D9F722E0A0E7B1E001C053
:1004D0001D92A73DB207E1F712E0C3E5D2E004C0E8
:1004E0002197FE010E942913C135D107C9F70E9447
:1004F00003110C94CE170C94000070E060E08DE3C3
:1005000096E00C94861490ED980F9A3098F490ED44
:10051000960F9A3078F490ED940F9A3058F4405D2D
:100520009AE0699F400D112494E6899F400D1124A3
:10053000842F08958FEF08951092030290ED980F85
:10054000973188F420ED260F273168F48A3310F0B4
:1005500099EC980F6A3310F029EC260F892F8295B9
:10056000807F820F08958FEF0895EF92FF920F938F
:100570001F93CF93DF9380917F0190918001EC01D5
:1005800097FD6F9625E0D595C7952A95E1F760E22E
:1005900070E00E94F312F82EE82E84E092E00E94B0
:1005A000550910E000E081E00C2E000CDD0B0C176B
:1005B0001D0794F4882369F0B80195E0660F771F52
:1005C0009A95E1F76F577E4F40E284E092E00E94F7
:1005D000E7090F5F1F4FEBCFEE2071F181111FC0B4
:1005E00061E085E00E949B1264EF70E087E292E098
:1005F0000E943E100E947D0284E092E00E94770BF0
:1006000084E092E00E94A90A1092800110927F017A
:10061000DF91CF911F910F91FF90EF900895BE0150
:1006200085E0660F771F8A95E1F76F577E4F4F2D54
:1006300084E092E00E94E709882391F260E085E07F
:100640000E949B12DDCF61E086E00E945F1261E0B4
:1006500086E00E949B1261E085E00E945F1260E0EC
:1006600085E00E949B1261E087E00E945F1261E0DA
:1006700088E00E945F1260E087E00E949B1261E0C8
:1006800070E080E090E00E94991161E087E00E94B4
:100690009B1226E040E052EC61E070E087E292E0DD
:1006A0000E94E40E84E092E00E94EA0D81110BC0EA
:1006B00061ED70E087E292E00E943E1061E085E02B
:1006C0000E949B12FFCF64EB70E087E292E00E94F1
:1006D0003E1041E061E084E092E00E94E40A60E2C2
:1006E00084E092E00E940B096CE071E084E092E00B
:1006F0000E940B0A46E051E061E084E092E00E9433
:100700003D0A4CE051E060E084E092E00E943D0A46
:1007100084E092E00C94A90A0F931F9300E816E975
:1007200028E930E048E067E084E092E00E94E208D7
:100730001F910F910895AF92BF92CF92DF92EF92E7
:10074000FF920F931F93CF93DF9300D000D000D080
:10075000CDB7DEB78C0181E4F801808362E171E0FE
:1007600087E292E00E94501081E090E06E01F6E096
:10077000CF0ED11C7801E80EF91E87E292E00E94AC
:10078000FD0D892BD1F387E292E00E94170EF7014D
:1007900081937F01E01BF10B8A3079F7E00FF11FA5
:1007A000108246E050E066E171E0C8010E947814D2
:1007B000892B11F5F8014085678186810E948302AB
:1007C000F82EFDE7F81750F46DE171E087E292E052
:1007D0000E94501061E085E00E949B126F2D84E022
:1007E00092E00E94000962E271E087E292E00E94DA
:1007F000501090E080E0BECF47E050E065E271E04D
:10080000C8010E947814892B09F072C0F801608534
:1008100087810E949C028D83F801628581850E94F8
:100820009C028C83F801648583850E949C028B83E3
:10083000F801668585850E949C028A83F80160899B
:1008400087850E949C0289831E826DE271E087E2A7
:1008500092E00E942B10CE0101967C015C01F70111
:1008600061917F01062E000C770B40E150E087E29A
:1008700092E00E94FB10EC14FD0489F787E292E0FD
:100880000E943A1080910302882351F06DE171E0DB
:1008900087E292E00E94501061E085E00E949B1286
:1008A000B50186E091E00E947114B5018CE091E001
:1008B0000E94711461E084E092E00E94870A46E0A1
:1008C00051E061E084E092E00E943D0A4CE051E09A
:1008D00060E084E092E00E943D0A6CE071E084E018
:1008E00092E00E940B0A84E092E00E94A90A7BCF6A
:1008F00048E050E06BE371E0C8010E947814892B56
:1009000009F041C0F801618580850E949C028D83B9
:10091000F801638582850E949C028C83F8016585BD
:1009200084850E949C028B83F801678586850E94DE
:100930009C028A83F801618980890E949C028983D4
:100940001E8280910302882351F06DE171E087E2FD
:1009500092E00E94501061E085E00E949B12BE016F
:100960006F5F7F4F86E091E00E94711461E084E048
:1009700092E00E94870A46E051E061E084E092E064
:100980000E943D0AB0CF48E050E064E471E0C80145
:100990000E947814892B09F04AC0F801618580858E
:1009A0000E949C028D83F801638582850E949C02CF
:1009B0008C83F801658584850E949C028B83F801F5
:1009C000678586850E949C028A83F80161898089F7
:1009D0000E949C0289831E8280910302882351F029
:1009E0006DE171E087E292E00E94501061E085E0E5
:1009F0000E949B12BE016F5F7F4F8CE091E00E94CE
:100A0000711461E084E092E00E94870A6CE071E07A
:100A100084E092E00E940B0A46E051E061E084E04D
:100A200092E00E943D0A4CE051E060E0A7CF49E02F
:100A300050E06DE471E0C8010E947814892B39F40C
:100A40000E947D0284E092E00E94770BD2CE43E0C8
:100A500050E067E571E0C8010E947814892B09F025
:100A6000C8CE62E271E087E292E026960FB6F89473
:100A7000DEBF0FBECDBFDF91CF911F910F91FF90D1
:100A8000EF90DF90CF90BF90AF900C945010CF922A
:100A9000DF92EF92FF920F931F93CF93DF931F92FA
:100AA000CDB7DEB7BE016F5F7F4F84E092E00E945A
:100AB000EA098823B9F084E092E00E942709182F00
:100AC000482F61EE71E084E092E00E94FE09E12F80
:100AD000F0E0EF51FE4F118261EE71E087E292E0AB
:100AE0000E942B1087E292E00E94FD0D892B09F4F1
:100AF00078C00E94681160937701709378018093A9
:100B0000790190937A0187E292E00E94170E182FE4
:100B100080917F0190918001FC01EF57FE4F10837F
:100B200001969093800180937F01809174018823C6
:100B300079F10E946811C0907B01D0907C01E09017
:100B40007D01F0907E016C197D098E099F09683E38
:100B500073408105910588F0113479F481E891E0C2
:100B60000E949B031092800110927F01E1E8F1E066
:100B700080E6DF011D928A95E9F7109274011B321D
:100B800041F581E090E090937601809375011AC061
:100B90001B32F9F480917501909176010196909342
:100BA000760180937501039769F40E946811609340
:100BB0007B0170937C0180937D0190937E0181E0A5
:100BC0008093740180917F019091800180973CF423
:100BD00008C010927601109275011A3099F70E94A0
:100BE000B50280917F0190918001892BA9F00E942C
:100BF000681100917701109178012091790130916D
:100C00007A01601B710B820B930B653F714081056C
:100C1000910510F00E94B5020E94681100917001C8
:100C2000109171012091720130917301601B710B61
:100C3000820B930B603D774081059105A0F00E94E7
:100C400068116093700170937101809372019093A9
:100C5000730186E00E94C91261E0892B09F060E00F
:100C600086E00E949B120F90DF91CF911F910F9110
:100C7000FF90EF90DF90CF900895CF93C82F682F0B
:100C800087E292E00E94970E8C2FCC0F990BCF91A8
:100C90000895CF93CFB7F89480912502811127C092
:100CA000EDE6F4E08491E2E5F4E09491E82FF0E0E1
:100CB000EE0FFF1FEA56FB4FA591B491EC91E9238B
:100CC00021F461E08AE00E949B1261E08AE00E94C8
:100CD0005F128CB580618CBD8CB580648CBD61E089
:100CE0008DE00E945F1261E08BE00E945F128091B4
:100CF00025028F5F80932502CFBFCF9108958EBDCF
:100D000000000DB407FEFDCF8EB50895CF93DF939D
:100D1000EC018B810E949B128A8D9B8DDF91CF917C
:100D20000C94D211FC018281938189130C949B1243
:100D300008950F931F93FC0104811581268137814B
:100D400040E052E16AE770E090E0041715072607DB
:100D5000370740F476956795579547959F5F96308E
:100D6000A1F797E0392F306A369590959170809170
:100D70002402882381F08FB7F89420912402213037
:100D800091F42DB3209322024DB32091230220959C
:100D900024232DBB8FBF3CBD9DBD60E0CF011F91C3
:100DA0000F910C94860680932202F5CF61E00E9499
:100DB000860680912402882361F09FB7F8942091E1
:100DC000240280912202213019F48DBB9FBF089527
:100DD0008FBF08951F93CF93DF93EC01162F0E94CE
:100DE0009906812F80620E947F068887CE01DF915D
:100DF000CF911F910C94D606DF92EF92FF920F9342
:100E00001F93CF93DF938C01C62FD42EE52EF22EA5
:100E10000E9499068C2F0E947F06F8018087CD2DB5
:100E2000DE2DFA94FFEFFF1629F08FEF0E947F0668
:100E30008993F7CFC801DF91CF911F910F91FF9058
:100E4000EF90DF900C94D6061F93CF93DF93EC01C5
:100E5000162F0E949906812F0E947F0688878FEFA8
:100E60000E947F06182FCE010E94D606812FDF91A7
:100E7000CF911F910895DF92EF92FF920F931F93EE
:100E8000CF93DF938C01C62FD42EE52EF22E0E9435
:100E900099068C2F80620E947F06F8018087CD2DF5
:100EA000DE2DFA94FFEFFF1621F089910E947F0654
:100EB000F8CFC801DF91CF911F910F91FF90EF9074
:100EC000DF900C94D6060F931F93CF93DF932223CA
:100ED00031F0DF91CF911F910F910C94EA06042F0E
:100EE000162FEC010E949906812F80620E947F06D6
:100EF0008887802F0E947F06CE01DF91CF911F91BE
:100F00000F910C94D606CF92DF92EF92FF920F933F
:100F10001F93CF93DF938C016B01F22EFC01848928
:100F2000811117C0C185DC2F4C1708F4D42FCD1BBD
:100F3000C8010E9499068F2D0E947F06F8018087C4
:100F40007601D15070F0F70181917F010E947F06F8
:100F5000F8CFC1E04111C0E0D42F413248F3D0E2D4
:100F6000E7CFC15020F080E00E947F06FACFC80191
:100F7000DF91CF911F910F91FF90EF90DF90CF9075
:100F80000C94D606CF92DF92EF92FF920F931F93AD
:100F9000CF93DF938C016B01FC018489811118C010
:100FA000C185DC2F4C1708F4D42FCD1BC8010E943B
:100FB000990681E60E947F06F80180877601D1506C
:100FC00068F08FEF0E947F06F70181937F01F7CFD2
:100FD000D42F413208F0D0E2C0E0E8CFC15020F079
:100FE0008FEF0E947F06FACFC801DF91CF911F914A
:100FF0000F91FF90EF90DF90CF900C94D606CF9397
:10100000DF93EC0162EE0E94EA068885DF91CF91C2
:101010000895CF93DF93EC0161EE0E94EA06888584
:10102000DF91CF910895CF93DF93EC016FEF0E9492
:10103000EA068885DF91CF910895CF92DF92FF92E3
:101040000F931F93CF93DF936C01C42FD22F7F9305
:101050006F9388E294E09F938F930E94D114DC0FEA
:101060000F900F900F900F9000E214E0CD1799F0C1
:10107000FF24F394FC0E6C2FC6010E9424071F92DC
:101080008F931F930F930E94D1140F900F900F9086
:101090000F90CF2DEBCF8DE194E09F938F930E9423
:1010A000D1140F900F90DF91CF911F910F91FF906E
:1010B000DF90CF9008958F929F92AF92BF92CF9280
:1010C000DF92EF92FF920F931F93CF93DF938C01E8
:1010D000C42F922E7F936F9388E194E09F938F9318
:1010E0000E94D1149C0E0F900F900F900F9084E1EE
:1010F000E82E84E0F82E9FE0C92E94E0D92E9C16AD
:10110000A1F1F801838990E00E9418115C01882404
:1011100083948C0E6C2F6F71F8012389AC01C80188
:101120000E94FC06FF92EF920E94D114F801C3893D
:10113000CA0DDB2DD11D0F900F902197CA15DB052D
:1011400060F088811F928F93DF92CF920E94D1141A
:101150000F900F900F900F90F0CFA114B10419F0E1
:10116000C5010E941C11C82DCACF8CE094E09F934A
:101170008F930E94D1140F900F90DF91CF911F9108
:101180000F91FF90EF90DF90CF90BF90AF909F9026
:101190008F900895FC0186E292E09183808312860D
:1011A00084819581A681B781893B9848A105B105C5
:1011B00040F480E896E9A8E9B0E084839583A683AB
:1011C000B78308950F931F93FC01628343830483C5
:1011D00015832683378380E28187108A118A85E010
:1011E000838B81E0848B85E090E0A0E0B0E0828F8B
:1011F000938FA48FB58FCF011F910F910C94CA08C4
:10120000462F6D3708F04DE720E065E00C9463074A
:1012100065E00C9424070F931F93CF938C016623F2
:10122000A1F0613208F060E2F8016187C1E120E0DD
:10123000F80141856C2FC8010E946307CF5FC73159
:10124000B1F7CF911F910F91089561E0EDCFFC01AF
:1012500081850895FC0182818F3F21F081E0938197
:101260009F3F09F480E008951F93CF93DF93EC0133
:101270000E942A09182F882399F08A819B81891757
:1012800039F061E00E945F1261E08B810E945F1281
:1012900060E0CE010E94920661E0CE010E948606C7
:1012A000812FDF91CF911F910895CF93DF93EC01B0
:1012B00060E00E9492068E899F890E94D2118A89DD
:1012C000882319F0CE010E9409084F854E7F4F8771
:1012D00020E060E0CE010E94630762E0CE010E9440
:1012E0002407E6E1F1E0E49141E050E001C0440F61
:1012F000EA95EAF7482B20E062E0CE01DF91CF913A
:101300000C946307FC01478541FD0AC04260478792
:1013100020E060E00E94630788E893E10C94D2111A
:1013200008950F93CF93DF93EC0121110DC020EAB4
:10133000CE010E948307002349F061E0CE01DF91D6
:10134000CF910F910C94920620EBF2CFDF91CF91C9
:101350000F910895CF92DF92EF92FF920F93CF9368
:10136000DF93EC0101E00E9491090E9468116B017A
:101370007C01CE010E9413088073B1F40E946811B1
:101380006C197D098E099F096036710581059105EB
:1013900080F381E08D8B80E0DF91CF910F91FF9002
:1013A000EF90DF90CF90089560E0CE010E9492060A
:1013B00020E040E767E0CE010E946307888584FF54
:1013C00004C0CE010E940908E6CF81E0E5CF20E00D
:1013D0000C94AA09CF93DF93EB010E94130890E0CD
:1013E000959587958770863028F4209709F0888333
:1013F00081E001C080E0DF91CF910895CF93DF932A
:10140000EC010E94C20720E040E467E0CE01DF91DA
:10141000CF910C9463070F931F93CF93DF93EC014D
:101420008B012B89AB016AE00E943B072B89A80145
:1014300060E1CE01DF91CF911F910F910C943B079A
:101440000F931F93CF938C01CEEFC60F69F0C3703B
:1014500020E04C2F63E00E946307CE5FF801C38B4E
:10146000CF911F910F91089520E040E063E00E942A
:10147000630782E0F801838BF3CFEF92FF920F9323
:101480001F93CF938C01C62F7A0161112FC0FC01ED
:10149000438950E0B7010A960E94681481E0F80180
:1014A000818BEC2FF0E0E05FFE4F6491F80123891F
:1014B000A701C8010E943B0762E0C8010E942407FF
:1014C000EC2FF0E0EA5EFE4FE49141E050E001C015
:1014D000440FEA95EAF7482B20E062E0C801CF917B
:1014E0001F910F91FF90EF900C946307663048F4C2
:1014F000E62FF0E0E05FFE4F613099F2649121E069
:10150000D7CFCF911F910F91FF90EF9008951F9328
:10151000CF93DF93EC01162F62E00E942407E12FA6
:10152000F0E0EA5EFE4FE49121E030E001C0220FDE
:10153000EA95EAF72095422F482320E062E0CE01A9
:101540000E946307111101C0198ADF91CF911F9189
:101550000895CF93DF93EC010E9482094F8541608B
:101560004F8720E060E0CE010E94630720E040E763
:1015700067E0CE010E94630761E0CE010E949206FF
:101580008989882351F0AE01465F5F4F2B896AE05D
:10159000CE01DF91CF910C943B0760E0CE01DF914B
:1015A000CF910C94870ACF93DF93EC010E949906A8
:1015B00080E50E947F06888783E70E947F06CE0130
:1015C000DF91CF910C94D6060F931F93CF93DF93A7
:1015D0008C01C62FD42F66E00E942407887F4C2FF1
:1015E000C43008F043E0440F4D0F482B20E066E084
:1015F000C801DF91CF911F910F910C94630766E0B2
:101600000E94240790E095958795837008950F9325
:101610001F93CF93DF93EC018B0166E00E942407B8
:10162000877D02301105E9F44BE950E060E070E09D
:101630004E8B5F8B688F798F10E2182B20E0412F43
:1016400066E0CE010E94630766E0CE010E94240797
:1016500091E0811390E0892FDF91CF911F910F913D
:1016600008950130110551F045E550E060E070E06B
:101670004E8B5F8B688F798F10E0DFCF41E450E0B5
:1016800060E070E04E8B5F8B688F798F18E0D5CF6C
:1016900066E00E942407282F2872203231F081E072
:1016A00090E0283021F080E0089582E090E00895F5
:1016B0001F93CF93DF93EC0161E00E942407182F62
:1016C00060E0CE010E9424078F8783FD02C01123B2
:1016D00041F082FD09C081E090E0DF91CF911F9140
:1016E000089590E080E0F9CF82E090E0F6CFBF92DD
:1016F000CF92DF92EF92FF920F931F93CF93DF93DE
:10170000EC016C817D818E819F8120E432E44FE089
:1017100050E00E9407131F922F938CE393E09F9356
:101720008F930E94D114CE010E940809282F30E027
:10173000205A364F3F932F931F928F9380E293E06E
:101740009F938F930E94D114E889F0E0EE0FFF1F62
:10175000EE52FC4F859194919F938F9381E193E09A
:101760009F938F930E94D114CE010E94480BFC01DD
:10177000EE0FFF1FE751FC4F859194919F938F933C
:101780008EEF92E09F938F930E94D114CE010E941E
:10179000FF0AE82FF0E0EE0FFF1FEF57FC4F859197
:1017A00094919F938F9386EE92E09F938F930E94E4
:1017B000D11466E0CE010E942407082F017010E0CA
:1017C000F801EE0FFF1FEB5AFC4F859194919F9308
:1017D0008F938AEC92E09F938F930E94D114CE0155
:1017E0000E94580BFC01EE0FFF1FE255FC4F859144
:1017F00094919F938F9389EB92E09F938F930E9494
:10180000D11463E0CE010E942407837090E0029619
:101810009F938F938CE992E09F938F930E94D114B2
:101820002DB73EB72E5D3F4F0FB6F8943EBF0FBEAB
:101830002DBF89851F928F9389E792E09F938F93A5
:101840000E94D11464E0CE010E942407182F90E07A
:10185000B4E095958795BA95E1F701964AEF489FD0
:101860009001499F300D11243F932F9384E592E01E
:101870009F938F930E94D1141F701F921F9381E337
:1018800092E09F938F930E94D11468E0CE010E9452
:101890002407182F90E004E0959587950A95E1F7C5
:1018A0009F938F9386E092E09F938F930E94D11431
:1018B0001F701F921F9381ED91E09F938F930E9461
:1018C000D1146DE1CE010E942407182F34E0839FCC
:1018D000F0011124E470FF27EB5AFC4F859194919D
:1018E0009F938F9381EC91E09F938F930E94D114EB
:1018F00011FBEE24E0F8F12CF701EE0FFF1FEB5A7D
:10190000FC4F859194919F938F9389EA91E09F93E7
:101910008F930E94D1146CE1CE010E9424072DB751
:101920003EB7245E3F4F0FB6F8943EBF0FBE2DBFAB
:1019300012FBEE27E0F9811101C0E0E0F0E0EE0FCC
:10194000FF1FEB5AFC4F859194919F938F9383E9EE
:1019500091E09F938F930E94D11461E0CE010E9489
:1019600024070F900F900F900F908F3311F081117B
:1019700077C0E1E0F0E0811102C0F0E0E0E0EE0FBE
:10198000FF1FEB5AFC4F859194919F938F938AE7A9
:1019900091E09F938F930E94D1140F900F900F901E
:1019A0000F9060E0CE010E9424078F8780FF87C0E0
:1019B00082E51F928F938DE391E09F938F930E9416
:1019C000D11421E040E161E371E0CE010E945B08A7
:1019D00062E0CE010E9424070F900F900F900F90AD
:1019E00010E000E0E82EF12C9EE1C92E91E0D92E06
:1019F000F701002E02C0F595E7950A94E2F7E17031
:101A0000FF273396EE0FFF1FEB5AFC4F8591949101
:101A10009F938F931F930F93DF92CF920E94D114C5
:101A20004AE0400F0F900F900F900F900F900F9083
:101A300021E0023008F045C06DE171E0CE010E9466
:101A40005B080F5F1F4F0630110591F6DF91CF91B4
:101A50001F910F91FF90EF90DF90CF90BF9008956E
:101A600051E380FF50E341E381FF40E331E382FF34
:101A700030E321E383FF20E391E384FF90E385FFDC
:101A80001CC081E31F925F931F924F931F923F935D
:101A90001F922F931F929F931F928F9383E591E044
:101AA0009F938F930E94D1148DB79EB70E960FB659
:101AB000F8949EBF0FBE8DBF74CF80E3E3CF84E563
:101AC00078CF6CE171E0CE010E941D08BACF603181
:101AD00008F06FE020E1629FB0011124403108F06E
:101AE0004FE0462B20E064E00C9463071F93CF93F4
:101AF000DF93EC0165E070E080E090E00E949911D6
:101B00004FE065E0CE010E94670D70E060E0CE011D
:101B10000E94070B6DE1CE010E942407182FCE0111
:101B20000E94D30A6DE1CE010E94240791E01813B0
:101B300090E0988B882359F0181303C0CE010E94BF
:101B4000D30A20E040E06DE1CE010E9463071A8ACB
:101B500020E040E06CE1CE010E9463071C8A20E097
:101B60004FE361E0CE010E94630720E043E062E0C2
:101B7000CE010E94630760E2CE010E940B0965E07E
:101B8000CE010E94200A6CE4CE010E94000920E0F0
:101B900040E767E0CE010E946307CE010E94FF0785
:101BA000CE010E94090820E04CE060E0CE010E94D6
:101BB000630760E0CE010E9424078F87CE010E9458
:101BC000820981E09F859E3009F080E0DF91CF910E
:101BD0001F910895CF93DF93EC010E944906CE0137
:101BE0000E943409882329F0CE01DF91CF910C9413
:101BF000760D80E0DF91CF910895FC01918D228DCB
:101C0000892F90E0805C9F4F821B91098F739927E9
:101C10000895FC01918D828D981731F0828DE80F27
:101C2000F11D858D90E008958FEF9FEF0895FC01E1
:101C3000918D828D981761F0A28DAE0FBF2FB11DCF
:101C40005D968C91928D9F5F9F73928F90E0089527
:101C50008FEF9FEF0895FC01538D448D252F30E0C9
:101C6000842F90E0821B930B541710F0CF960895A9
:101C70000197089584E99FE0892B49F080E090E086
:101C8000892B29F00E94940F81110E94000080E0AE
:101C900090E0892B49F080E090E0892B29F00E94A8
:101CA000000081110C9400000895FC01A48DA80F80
:101CB000B92FB11DA35ABF4F2C91848D90E001968E
:101CC0008F739927848FA689B7892C93A089B189AE
:101CD0008C91837080648C93938D848D981306C04F
:101CE0000288F389E02D80818F7D80830895CF93D2
:101CF000DF93EC01888D8823B9F0AA89BB89E88934
:101D0000F9898C9185FD03C0808186FD0DC00FB6D9
:101D100007FCF7CF8C9185FFF2CF808185FFEDCF57
:101D2000CE010E94550EE9CFDF91CF910895EF9239
:101D3000FF920F931F93CF93DF93EC0181E0888F85
:101D40009B8D8C8D98131AC0E889F989808185FF55
:101D500015C09FB7F894EE89FF896083E889F989F7
:101D600080818370806480839FBF81E090E0DF91F9
:101D7000CF911F910F91FF90EF900895F62E0B8D4C
:101D800010E00F5F1F4F0F731127E02E8C8D8E1107
:101D90000CC00FB607FCFACFE889F989808185FF6E
:101DA000F5CFCE010E94550EF1CFEB8DEC0FFD2F3C
:101DB000F11DE35AFF4FF0829FB7F8940B8FEA8929
:101DC000FB8980818062CFCFCF92DF92EF92FF922A
:101DD0001F93CF93DF93EC016A017B01122FE889F7
:101DE000F98982E08083C11481EED806E104F10410
:101DF000A1F060E079E08DE390E0A70196010E94F8
:101E000007132150310941095109569547953795D6
:101E10002795211580E1380798F0E889F989108223
:101E200060E874E88EE190E0A70196010E94071334
:101E30002150310941095109569547953795279504
:101E4000EC85FD853083EE85FF852083188EEC8937
:101E5000FD891083EA89FB89808188698083EA890A
:101E6000FB8980818F7D8083DF91CF911F91FF90CF
:101E7000EF90DF90CF9008951F920F920FB60F92C0
:101E800011242F938F939F93EF93FF93E091370249
:101E9000F09138028081E0913D02F0913E0282FD96
:101EA0001BC09081809140028F5F8F73209141020F
:101EB000821741F0E0914002F0E0E95DFD4F958F1F
:101EC00080934002FF91EF919F918F912F910F90FE
:101ED0000FBE0F901F9018958081F4CF1F920F9224
:101EE0000FB60F9211242F933F934F935F936F93ED
:101EF0007F938F939F93AF93BF93EF93FF9387E26B
:101F000092E00E94550EFF91EF91BF91AF919F918A
:101F10008F917F916F915F914F913F912F910F9092
:101F20000FBE0F901F90189587E292E00E94FD0D62
:101F300021E0892B09F420E0822F0895E7E2F2E006
:101F40001382128288EE93E0A0E0B0E08483958350
:101F5000A683B7838FE591E09183808385EC90E041
:101F60009587848784EC90E09787868780EC90E063
:101F7000918B808B81EC90E0938B828B82EC90E054
:101F8000958B848B86EC90E0978B868B118E128ECE
:101F9000138E148E0895AF92BF92CF92DF92EF927C
:101FA000FF920F931F93CF93DF936C017B018B0103
:101FB000040F151FEB015E01AE18BF08C017D10753
:101FC00059F06991D601ED91FC910190F081E02DDD
:101FD000C6010995892B79F7C501DF91CF911F9132
:101FE0000F91FF90EF90DF90CF90BF90AF9008954A
:101FF000FB0101900020E9F73197AF01461B570B19
:10200000DC01ED91FC910280F381E02D0994EF92C7
:10201000FF920F931F93CF93DF938C017B01D0E04E
:10202000C0E0F701EC0FFD1F6491662361F0D80159
:10203000ED91FC910190F081E02DC8010995892B6B
:1020400011F02196EECFCE01DF91CF911F910F912C
:10205000FF90EF9008956115710511F00C94F80F41
:1020600090E080E00895DC01ED91FC910190F08119
:10207000E02D09946DE671E00C94F80F0F931F9317
:10208000CF93DF93EC010E9407108C01CE010E94D8
:102090003A10800F911FDF91CF911F910F910895FA
:1020A0000F931F93CF93DF938C01D0E0C0E06115B5
:1020B000710519F00E94F80FEC01C8010E943A1056
:1020C0008C0F9D1FDF91CF911F910F9108958F92DB
:1020D0009F92AF92BF92EF92FF920F931F93CF9375
:1020E000DF93CDB7DEB7A1970FB6F894DEBF0FBE72
:1020F000CDBF7C01FA01CB0119A2223008F42AE0FD
:102100008E010F5D1F4F822E912CB12CA12CBF018F
:10211000A50194010E940713F901CA016A300CF568
:10212000605DD8016E938D01232B242B252B79F72D
:1021300090E080E0109721F0BD01C7010E94F80FE8
:10214000A1960FB6F894DEBF0FBECDBFDF91CF9141
:102150001F910F91FF90EF90BF90AF909F908F9045
:102160000895695CDECFCF92DF92EF92FF920F93DA
:102170001F93CF93DF932115310581F4DC01ED919D
:10218000FC910190F081E02D642FDF91CF911F91A0
:102190000F91FF90EF90DF90CF9009942A30310596
:1021A00001F52AE077FF1DC06A017B01EC016DE2B9
:1021B0000E9433108C0144275527BA014C195D0940
:1021C0006E097F092AE0CE010E946710800F911FDF
:1021D000DF91CF911F910F91FF90EF90DF90CF9003
:1021E0000895DF91CF911F910F91FF90EF90DF90B5
:1021F000CF900C9467109A01AB01770F660B770BA9
:102200000C94B31008950E94DD110E9402110E94E7
:102210002303CAE3DEE00E9447052097E1F30E9412
:102220003A0EF9CF009711F481E090E00C9443133B
:102230000C9412110C94DF130C941A111F920F922C
:102240000FB60F9211242F933F938F939F93AF93C9
:10225000BF938091C9029091CA02A091CB02B09124
:10226000CC023091C80223E0230F2D3768F126E815
:10227000230F0296A11DB11D2093C8028093C902AD
:102280009093CA02A093CB02B093CC028091C40277
:102290009091C502A091C602B091C7020196A11DFE
:1022A000B11D8093C4029093C502A093C602B0935F
:1022B000C702BF91AF919F918F913F912F910F9046
:1022C0000FBE0F901F9018950196A11DB11DD4CF80
:1022D0002FB7F8946091C9027091CA028091CB0225
:1022E0009091CC022FBF08953FB7F8948091C4021B
:1022F0009091C502A091C602B091C70226B5A89BD5
:1023000005C02F3F19F00196A11DB11D3FBFBA2F87
:10231000A92F982F8827BC01CD01620F711D811D47
:10232000911D42E0660F771F881F991F4A95D1F7CC
:1023300008958F929F92AF92BF92CF92DF92EF92C9
:10234000FF926B017C010E9474114B015C01C1146E
:10235000D104E104F104E9F00E94F2120E94741128
:10236000681979098A099B09683E734081059105BE
:1023700070F321E0C21AD108E108F10888EE880E56
:1023800083E0981EA11CB11CC114D104E104F10426
:1023900029F7FF90EF90DF90CF90BF90AF909F9084
:1023A0008F9008958230910538F0880F991F880F1B
:1023B000991F05970197F1F70895789484B5836084
:1023C00084BD85B5836085BDEEE6F0E080818160E7
:1023D0008083E1E8F0E082E0808380818160808317
:1023E000E0E8F0E0808181608083E1EBF0E08081D3
:1023F00084608083E0EBF0E0808181608083E1E9AC
:10240000F0E0808183608083E0E9F0E0808181609A
:102410008083E1EAF0E0808183608083E0EAF0E09D
:1024200080818160808387E880937A001092C10068
:10243000089582508D3008F03EC0E82FF0E0ED5D49
:10244000FD4E0C94291358125C12301236125B1296
:102450005B123A12401244124A125B124E1254128C
:10246000809180008F778093800008958091800014
:102470008F7DF9CF8091B0008F778093B000089561
:102480008091B0008F7DF9CF809190008F778093FD
:1024900090000895809190008F7DF9CF8091A000E9
:1024A0008F778093A00008958091A0008F7DF9CF51
:1024B00084B58F7784BD089584B58F7DFBCFCF938E
:1024C000DF9390E0FC01E85BFB4F24918D599B4F1B
:1024D000FC0184918823C9F090E0880F991FFC01CA
:1024E000EA56FB4FA591B491FC01E657FB4FC5910D
:1024F000D49161110DC09FB7F8948C9120958223DF
:102500008C938881282328839FBFDF91CF910895E2
:10251000623051F49FB7F8943C91822F80958323C9
:102520008C93E8812E2BEFCF8FB7F894EC912E2B64
:102530002C938FBFEACF1F93CF93DF93282F30E0E8
:10254000F901E35DFB4F8491F901E85BFB4FD49106
:10255000F901ED59FB4FC491CC23A9F0162F81113D
:102560000E941912EC2FF0E0EE0FFF1FE657FB4F11
:10257000A591B4918FB7F894EC91111108C0D09542
:10258000DE23DC938FBFDF91CF911F910895DE2B67
:10259000F8CFCF93DF93282F30E0F901E35DFB4FB5
:1025A0008491F901E85BFB4FD491F901ED59FB4FA0
:1025B000C491CC23A1F081110E941912EC2FF0E0FC
:1025C000EE0FFF1FE258FB4FA591B491EC91ED2364
:1025D00081E090E009F480E0DF91CF91089580E000
:1025E00090E0FACF089597FB072E16F4009407D0D9
:1025F00077FD09D00E942F1307FC05D03EF490957B
:1026000081959F4F0895709561957F4F0895A1E240
:102610001A2EAA1BBB1BFD010DC0AA1FBB1FEE1F5C
:10262000FF1FA217B307E407F50720F0A21BB30BA7
:10263000E40BF50B661F771F881F991F1A9469F723
:1026400060957095809590959B01AC01BD01CF017F
:102650000895EE0FFF1F0590F491E02D0994AA1B39
:10266000BB1B51E107C0AA1FBB1FA617B70710F07D
:10267000A61BB70B881F991F5A95A9F780959095AF
:10268000BC01CD0108950F931F93CF93DF93823048
:10269000910510F482E090E0E091CF02F091D00239
:1026A00030E020E0B0E0A0E0309799F4211531054A
:1026B00009F44AC0281B390B24303105D8F58A812A
:1026C0009B816115710589F1FB0193838283FE0172
:1026D00011C0408151810281138148175907E0F0F0
:1026E0004817590799F4109761F012960C931297B6
:1026F00013961C933296CF01DF91CF911F910F91CA
:1027000008950093CF021093D002F4CF2115310524
:1027100051F04217530738F0A901DB019A01BD01BE
:10272000DF01F801C1CFEF01F9CF9093D002809380
:10273000CF02CDCFFE01E20FF31F81939193225080
:10274000310939832883D7CF2091CD023091CE0231
:10275000232B41F420910201309103013093CE02EA
:102760002093CD0220910001309101012115310506
:1027700041F42DB73EB74091040150910501241B4F
:10278000350BE091CD02F091CE02E217F307A0F4F1
:102790002E1B3F0B2817390778F0AC014E5F5F4FB7
:1027A0002417350748F04E0F5F1F5093CE02409319
:1027B000CD02819391939FCFF0E0E0E09CCFCF9347
:1027C000DF930097E9F0FC01329713821282A09107
:1027D000CF02B091D002ED0130E020E01097A1F4DB
:1027E00020813181820F931F2091CD023091CE0242
:1027F0002817390709F061C0F093CE02E093CD02AB
:10280000DF91CF910895EA01CE17DF07E8F54A81FD
:102810005B819E0141155105B1F7E901FB83EA8314
:1028200049915991C40FD51FEC17FD0761F48081C0
:1028300091810296840F951FE90199838883828193
:1028400093819B838A83F0E0E0E012968D919C91C6
:1028500013970097B9F52D913C911197CD010296F0
:10286000820F931F2091CD023091CE022817390795
:1028700039F6309751F51092D0021092CF02B093F2
:10288000CE02A093CD02BCCFD383C28340815181BD
:10289000840F951FC817D90761F44E5F5F4F888179
:1028A0009981480F591F518340838A819B8193836B
:1028B00082832115310509F0B0CFF093D002E09367
:1028C000CF029ECFFD01DC01C0CF13821282D7CF91
:1028D000FB01DC0102C001900D9241505040D8F73D
:1028E0000895FB01DC0101900D920020E1F70895AD
:1028F000FB01DC014150504030F08D910190801976
:1029000019F40020B9F7881B990B08950F931F93B2
:10291000CF93DF93009759F46115710541F4F0E00E
:10292000E0E0CF01DF91CF911F910F9108958B01CE
:10293000EC016EE070E081E090E00E94D016FC01B6
:10294000892B69F380E883830115110571F01387E2
:10295000028781E883838091D1029091D202892BF2
:1029600021F4F093D202E093D1022097D1F2D187E3
:10297000C0878381826083838091D3029091D40247
:10298000892B79F6F093D402E093D3028091D5029B
:102990009091D602892B29F6F093D602E093D502C6
:1029A000C0CFB0E0A0E0E7EDF4E10C94A517AE01D4
:1029B000495F5F4FDA016D917D91AD0101ED12E04C
:1029C000F80182819381DC0113962C911397286082
:1029D00013962C930E94F614D8011296ED91FC9157
:1029E0002381277F2383E4E00C94C117ABE0B0E0A0
:1029F000ECEFF4E10C9497177C013B018A01FC0198
:102A000017821682838181FFC8C1CE0101965C01C5
:102A1000F7019381F30193FD859193FF81913F012C
:102A2000882309F453C1853239F493FD859193FFCE
:102A300081913F01853229F4B70190E00E94091786
:102A4000E7CF912C212C312CFFE1F31538F08B329C
:102A500011F190F4803209F1833229F137FC3CC046
:102A600020ED280F2A3050F536FE20C08AE0989ECF
:102A7000200D1124922E06C08D3291F0803371F713
:102A8000689430F8F30193FD859193FF81913F01A4
:102A90008111DACF21C0689431F8689432F8F2CF0E
:102AA000689433F8EFCF689434F8ECCFEAE02E9EC8
:102AB000200D1124222E689435F8E4CF8E3229F4AB
:102AC00036FC04C1689436F8DDCF8C3619F468946E
:102AD00037F8D8CF8836B1F2982F9F7D9554933030
:102AE000E0F08336A1F18337C1F1833509F063C08B
:102AF0002801F2E04F0E511CF801C080D180692DF1
:102B000070E036FC02C06FEF7FEFC6010E94EC164A
:102B10004C01689437F882010AC00C5F1F4FFFE335
:102B2000F98388248394912C6501E89437F833FE67
:102B30002DC0522C8114910471F5552009F468CFF1
:102B4000B70180E290E00E9409175A94F6CFF8018D
:102B5000808189830E5F1F4FE4CF2801F2E04F0E82
:102B6000511CF801C080D180692D70E036FC02C094
:102B70006FEF7FEFC6010E94FE164C018201D5CF98
:102B8000B70180E290E00E9409172A9428141904E2
:102B900009F0B0F7CECFF60137FC859137FE819171
:102BA0006F01B70190E00E94091751105A94F1E0AB
:102BB0008F1A9108BFCF843619F0893609F077C093
:102BC000F80137FE6BC060817181828193810C5F57
:102BD0001F4FF32DFF763F2E97FF09C090958095EC
:102BE000709561957F4F8F4F9F4F689437F82AE01B
:102BF00030E0A5010E943917C82ECA188C2C432C2E
:102C000036FE0CC0E89440F8C91440F434FE05C008
:102C100032FC03C0F32DFE7E4F2E892C44FE95C05E
:102C2000FE01EC0DF11D8081803309F087C0242D59
:102C3000297E422E842D8870582E43FC95C040FE7C
:102C40008FC09C2C821418F42C0C922C981844FEE3
:102C500091C0B70180E390E00E94091742FE09C0CD
:102C600088E790E041FE02C088E590E0B7010E944D
:102C70000917C91408F48AC0CA94D12C9FEFC91A45
:102C8000D90ACA0CDB1CF60182916F01B70190E0F2
:102C90000E940917AC14BD04B1F74FCF6081718158
:102CA000072E000C880B990B0E5F1F4F92CFD32C71
:102CB000E894D4F82AE030E0853739F1232D297FD4
:102CC000D22E8F3601F148F48835A9F0F7018681BC
:102CD00097812B96E2E10C94B317803749F088373F
:102CE000A9F7D4FE02C06894D2F820E130E00DC00C
:102CF0006894D4F8F6CF34FE03C0822F8660D82EB5
:102D000020E132E002C028E030E0F801D7FE0FC039
:102D100060817181828193810C5F1F4FA5010E94A8
:102D20003917C82ECA183D2CE89437F867CF608150
:102D3000718190E080E00E5F1F4FF0CF42FC02C037
:102D4000839478CF8394839475CF842D867809F407
:102D500071CFF6CFB70180E290E00E94091783940B
:102D60008214C0F3512C73CF522C5818821408F4DB
:102D70006ECFF8CF842D867809F47BCF8BE241FEAD
:102D800080E247FC8DE2B70190E071CFB70180E3AC
:102D900090E00E9409179A946CCF8FEF9FEF99CF24
:102DA0000F931F93CF93DF93869F8001879F100D12
:102DB000969F100D1124C8010E944313EC01009747
:102DC00029F0A80170E060E00E94F716CE01DF91C3
:102DD000CF911F910F910895FC01059061507040B3
:102DE0000110D8F7809590958E0F9F1F0895DC01F4
:102DF00001C06D9341505040E0F70895FC016150CF
:102E0000704001900110D8F7809590958E0F9F1F0C
:102E100008950F931F93CF93DF93182F092FEB0182
:102E20008B8181FD09C01FEF0FEF812F902FDF9164
:102E3000CF911F910F91089582FF14C02E813F8181
:102E40008C819D81281739073CF4E881F981CF01F5
:102E500001969983888310838E819F8101969F8339
:102E60008E83E3CFE885F985812F0995892BA1F31E
:102E7000DACFFA01AA27283051F1203181F1E89404
:102E80006F936E7F6E5F7F4F8F4F9F4FAF4FB1E05D
:102E90003ED0B4E03CD0670F781F891F9A1FA11D58
:102EA000680F791F8A1F911DA11D6A0F711D811D59
:102EB000911DA11D20D009F468943F912AE0269F1E
:102EC00011243019305D3193DEF6CF010895462F7D
:102ED0004770405D4193B3E00FD0C9F7F6CF462F5E
:102EE0004F70405D4A3318F0495D31FD40524193C7
:102EF00002D0A9F7EACFB4E0A69597958795779584
:102F00006795BA95C9F700976105710508959B010A
:102F1000AC010A2E06945795479537952795BA9593
:102F2000C9F7620F731F841F951FA01D08952F926C
:102F30003F924F925F926F927F928F929F92AF9249
:102F4000BF92CF92DF92EF92FF920F931F93CF9396
:102F5000DF93CDB7DEB7CA1BDB0B0FB6F894DEBF2D
:102F60000FBECDBF09942A88398848885F846E8453
:102F70007D848C849B84AA84B984C884DF80EE809D
:102F8000FD800C811B81AA81B981CE0FD11D0FB6A6
:102F9000F894DEBF0FBECDBFED010895F894FFCFCA
:102FA0000000D7028000C2C2C2C2C200C2C2C2C2F6
:102FB000C200434D440041542B4348200046414940
:102FC0004C004F4B0041542B41444420004E657748
:102FD00020416464726573733A200041542B52415E
:102FE0004444200041542B54414444200041542B7C
:102FF0005354415455530041543000000000009791
:103000000ECB0F2B0E770EFD0D170E090E0D0A00BD
:00000001FF
