:020000040000FA
:100000000C941F020C9447020C9447020C94470274
:100010000C9447020C9447020C9447020C9447023C
:100020000C9447020C9447020C9447020C9447022C
:100030000C9447020C9447020C9447020C9447021C
:100040000C943A090C9447020C94AA090C94840964
:100050000C9447020C9447020C9447020C944702FC
:100060000C9447020C9447023D203136206269749B
:1000700073003D2038206269747300206F70656ED4
:100080002000636C6F736564003D20416C6C6F777A
:100090006564003D20456E61626C6564003D2044EE
:1000A000697361626C6564003D2050415F4D415849
:1000B000003D2050415F48494748003D2050415F86
:1000C0004C4F57003D2050415F4D494E003D20327E
:1000D0003530204B425053003D2032204D4250538A
:1000E000003D2031204D425053006E524632344C78
:1000F00030312B006E524632344C30310050616347
:100100006B6574207472616E736D697373696F6E61
:10011000206661696C65642E00524632342F657822
:10012000616D706C65732F47657474696E67537485
:10013000617274656400726164696F2068617264E1
:1001400077617265206973206E6F742072657370B9
:100150006F6E64696E672121000000000023002695
:10016000002900000000080002010000030407004D
:10017000000000000000000A0B0C0D0E0F00000034
:1001800000250028002B0000000000240027002A82
:100190000004040404040404040202020202020330
:1001A000030303030301020408102040800102043A
:1001B0000810200102040810200D0A0020307825C4
:1001C000303278002553093D0000007069706520C9
:1001D0002575202825532920626F756E64005458B8
:1001E000206164647265737309005072696D617295
:1001F00079204D6F646509093D202563580D0A007B
:100200004175746F2041636B6E6F776C6564676DC9
:10021000656E74093D20306225632563256325637F
:10022000256325630D0A004175746F2041636B6E71
:100230006F776C6564676D656E740925530D0A00F0
:1002400044796E616D6963205061796C6F6164738C
:100250000925530D0A00437573746F6D2041434B9C
:10026000205061796C6F61640925530D0A004D754A
:100270006C746963617374090925530D0A00526532
:1002800074727920617474656D707473206D61642B
:100290006520666F720A202020206C6173742074C0
:1002A00072616E736D697373696F6E093D202564A9
:1002B0000D0A005061636B657473206C6F7374205A
:1002C0006F6E0A2020202063757272656E74206341
:1002D00068616E6E656C093D2025640D0A004175EC
:1002E000746F20526574727920417474656D7074F6
:1002F00073093D202564206D6178696D756D0D0A67
:10030000004175746F2052657472792044656C6188
:1003100079093D202564206D6963726F7365636F91
:100320006E64730D0A0053746174696320506179BF
:100330006C6F6164204C656E677468093D202564AC
:100340002062797465730D0A004164647265737389
:10035000204C656E67746809093D20256420627928
:100360007465730D0A00435243204C656E677468D0
:10037000090925530D0A009D0072006800524620AD
:100380004C6F77204E6F69736520416D706C6966A4
:100390006965720925530D0A009D0093008900824A
:1003A000007B00524620506F77657220416D706C63
:1003B00069666965720925530D0A00C400BB00B166
:1003C00000A800524620446174612052617465099E
:1003D0000925530D0A00E100D800CD004D6F64657A
:1003E0006C0909093D2025530D0A00F400EA004379
:1003F00068616E6E656C0909093D20257520287EAF
:10040000202575204D487A290D0A00535049204671
:1004100072657175656E637909093D202564204D0B
:10042000687A0A000D0A0025303278002030780002
:100430002553093D0000010203040500DC091124D5
:100440001FBECFEFD8E0DEBFCDBF11E0A0E0B1E02E
:10045000E4E5F7E202C005900D92A037B107D9F7A5
:1004600022E0A0E7B1E001C01D92A63DB207E1F78E
:1004700012E0CFE1D2E004C02197FE010E94841374
:10048000CE31D107C9F70E94300A0C94A8130C94FE
:10049000000090E0FC01EB55FE4F24918F569E4FDB
:1004A000FC018491882399F090E0880F991FFC014A
:1004B000E957FE4FA591B491FC01E358FE4F859199
:1004C00094918FB7F894EC91E22BEC938FBF089541
:1004D000833081F028F4813099F08230A9F00895BA
:1004E0008730A9F08830C9F08430B1F48091800061
:1004F0008F7D03C0809180008F7780938000089566
:1005000084B58F7784BD089584B58F7DFBCF8091AE
:10051000B0008F778093B00008958091B0008F7DF8
:10052000F9CF1F93CF93DF93282F30E0F901ED59D6
:10053000FE4F8491F901EB55FE4FD491F901EF562E
:10054000FE4FC491CC23A9F0162F81110E9468029E
:10055000EC2FF0E0EE0FFF1FE358FE4FA591B49192
:100560008FB7F894EC91111108C0D095DE23DC937D
:100570008FBFDF91CF911F910895DE2BF8CF682FA9
:100580008091B0020E9491028091C8029091C902AC
:100590008230910538F0880F991F880F991F0597B1
:1005A0000197F1F7089581E00C94BF022091AE020B
:1005B0003091AF024091B0025091B102241735073B
:1005C00021F0682F822F0C94910208953FB7F89480
:1005D00080910A0290910B02A0910C02B0910D0241
:1005E00026B5A89B05C02F3F19F00196A11DB11D8E
:1005F0003FBFBA2FA92F982F8827BC01CD01620FCA
:10060000711D811D911D42E0660F771F881F991F84
:100610004A95D1F708952FB7F8946091060270912A
:10062000070280910802909109022FBF0895AF92AE
:10063000BF92CF92DF92EF92FF920F931F93CF93CF
:10064000DF936C017B018B01040F151FEB015E0131
:10065000AE18BF08C017D10759F06991D601ED91C6
:10066000FC910190F081E02DC6010995892B79F765
:10067000C501DF91CF911F910F91FF90EF90DF9017
:10068000CF90BF90AF900895FC01538D448D252FDE
:1006900030E0842F90E0821B930B541710F0CF961C
:1006A000089501970895FC01918D828D981761F04E
:1006B000A28DAE0FBF2FB11D5D968C91928D9F5F65
:1006C0009F73928F90E008958FEF9FEF0895FC0144
:1006D000918D828D981731F0828DE80FF11D858DF7
:1006E00090E008958FEF9FEF0895FC01918D228D8A
:1006F000892F90E0805C9F4F821B91098F7399270F
:1007000008958EE092E00E94750321E0892B09F4A0
:1007100020E0822F089580E090E0892B29F00E944C
:10072000810381110C9400000895FC01A48DA80F91
:10073000B92FB11DA35ABF4F2C91848D90E0019623
:100740008F739927848FA689B7892C93A089B18943
:100750008C91837080648C93938D848D981306C0E4
:100760000288F389E02D80818F7D80830895EF9248
:10077000FF920F931F93CF93DF93EC0181E0888F5B
:100780009B8D8C8D98131AC0E889F989808185FF2B
:1007900015C09FB7F894EE89FF896083E889F989CD
:1007A00080818370806480839FBF81E090E0DF91CF
:1007B000CF911F910F91FF90EF900895F62E0B8D22
:1007C00010E00F5F1F4F0F731127E02E8C8D8E11DD
:1007D0000CC00FB607FCFACFE889F989808185FF44
:1007E000F5CFCE010E949503F1CFEB8DEC0FFD2FDD
:1007F000F11DE35AFF4FF0829FB7F8940B8FEA89FF
:10080000FB8980818062CFCFCF93DF93EC01888D0D
:100810008823B9F0AA89BB89E889F9898C9185FD7B
:1008200003C0808186FD0DC00FB607FCF7CF8C9109
:1008300085FFF2CF808185FFEDCFCE010E94950329
:10084000E9CFDF91CF9108958EBD00000DB407FE72
:10085000FDCF8EB508951092710190ED980F9731EC
:1008600088F420ED260F273168F48A3310F099ECD4
:10087000980F6A3310F029EC260F892F8295807F1C
:10088000820F08958FEF0895CF93C82F682F8EE0C1
:1008900092E00E94B7038C2FCC0F990BCF91089553
:1008A0000F931F930091B2021091B3022091B402F2
:1008B0003091B50240E052E16AE770E080E0041751
:1008C00015072607370740F476956795579547959E
:1008D0008F5F8630A1F787E0982F906A9695809574
:1008E00081709CBD8DBD80E01F910F910C94BF0263
:1008F000CF93C82F0E9450048C2F80620E94240442
:100900008093B602CF910C94D302CF93C82F0E944C
:1009100050048C2F0E9424048093B6028FEF0E9413
:100920002404C82F0E94D3028C2FCF910895FF92E8
:100930000F931F93CF93DF93C82FF62E072F142FFB
:100940000E9450048C2F80620E9424048093B6027F
:10095000CF2DD02F115020F089910E942404FACF7E
:10096000DF91CF911F910F91FF900C94D302CF9301
:10097000DF93CCEAD2E04D8966E071E08AE00E9424
:1009800097044D8966E071E080E1DF91CF910C948E
:1009900097040E94500480E50E9424048093B602CC
:1009A00083E70E9424040C94D302CF93DF93D82FC3
:1009B000C62F0E9450048D2F80620E9424048093D1
:1009C000B6028C2F0E942404DF91CF910C94D302A5
:1009D000CF93C82F82E00E948504EC2FF0E0EB5CFF
:1009E000FB4FE49121E030E001C0220FEA95EAF7E5
:1009F0002095622F682382E00E94D504C11102C0B5
:100A00001092BF02CF9108956091BD0261FD0AC0AE
:100A100062606093BD0280E00E94D5048BE19EE499
:100A20000197F1F708950E9404056091BD0261608D
:100A30006093BD0280E00E94D50460E787E00E94D9
:100A4000D50481E00E94D6028091BF02882339F04C
:100A50004091C10268EB72E08AE00C94970480E058
:100A60000C94E804CF92DF92EF92FF920F931F93C2
:100A7000CF93DF937C018091C202811117C0D09186
:100A8000B702C62FD61708F4CD2FDC1B0E945004E6
:100A900080EA0E9424048093B6028701C15070F05E
:100AA000F80181918F010E942404F8CFD1E06111F7
:100AB000D0E0C62F613250F3C0E2E8CFD15020F031
:100AC00080E00E942404FACF0E94D30281E00E94B9
:100AD000D6020E940B036B017C018FEF0E94780409
:100AE0008091B6028073C1F40E940B036C197D09DA
:100AF0008E099F09603671058105910570F381E0CB
:100B00008093C30280E0DF91CF911F910F91FF90FE
:100B1000EF90DF90CF90089580E00E94D60260E7CA
:100B200087E00E94D5048091B60284FF04C081EE64
:100B30000E947804E7CF81E0E6CFCF93DF93C82F00
:100B4000D0E0FE01E958FE4F84914091C1020E941D
:100B5000970482E00E948504FE01EB5CFB4FE49168
:100B600061E070E001C0660FEA95EAF7682B82E069
:100B7000DF91CF910C94D504EF92FF920F931F93C6
:100B8000CF93DF93D62F9F938F9380E394E09F932F
:100B90008F930E94180FC091C1028C2F90E00F908C
:100BA0000F900F900F90009711F481E090E00E9459
:100BB00033118C010E9450048D2F0E9424048093D5
:100BC000B6027801C15038F08FEF0E942404F7017B
:100BD00081937F01F7CF0E94D3028CE294E09F9330
:100BE0008F930E94180FC091C102C00FD12FD11D49
:100BF0000F900F9087E2E82E84E0F82E2197C0171F
:100C0000D10760F088811F928F93FF92EF920E942C
:100C1000180F0F900F900F900F90F0CF0115110546
:100C200019F0C8010E94CF1184E294E09F938F9342
:100C30000E94180F0F900F90DF91CF911F910F918D
:100C4000FF90EF9008954F925F926F927F928F92F4
:100C50009F92AF92BF92CF92DF92EF92FF920F934B
:100C60001F93CF93DF936091B2027091B302809192
:100C7000B4029091B50220E432E44FE050E00E94CB
:100C80004E131F922F938BE094E09F938F930E94BB
:100C9000180F85E00E948504282F30E0205A364F37
:100CA0003F932F931F928F938FEE93E09F938F9399
:100CB0000E94180FE091BE02F0E0EE0FFF1FE55119
:100CC000FC4F859194919F938F938CED93E09F932C
:100CD0008F930E94180F86E00E94850488722DB7BA
:100CE0003EB7225F3F4F0FB6F8943EBF0FBE2DBFF9
:100CF000E2E0F0E0803239F021E090E0883009F065
:100D000020E0E22FF92FEE0FFF1FEA52FC4F8591F2
:100D100094919F938F9383EC93E09F938F930E9482
:100D2000180F86E00E948504E82FF0E0F595E7951E
:100D3000E370F0E0EE0FFF1FE554FC4F85919491B6
:100D40009F938F9383EA93E09F938F930E94180F52
:100D500086E00E948504082F017010E0F801EE0F74
:100D6000FF1FE756FC4F859194919F938F938DE7DA
:100D700093E09F938F930E94180F81E00E94850457
:100D8000182F80E00E9485048093BD022DB73EB7E6
:100D9000245F3F4F0FB6F8943EBF0FBE2DBF83FDBB
:100DA00004C0F0E0E0E0112331F0E2E0F0E082FD89
:100DB00002C0E1E0F0E0EE0FFF1FE958FC4F859123
:100DC00094919F938F9386E693E09F938F930E94D5
:100DD000180F83E00E948504837090E002969F9331
:100DE0008F9389E493E09F938F930E94180F8091D3
:100DF000B7021F928F9386E293E09F938F930E9496
:100E0000180F84E00E948504182F90E0E4E0959587
:100E10008795EA95E1F701964AEF489F9001499F2F
:100E2000300D11243F932F9381E093E09F938F9394
:100E30000E94180F1F701F921F938EED92E09F93D8
:100E40008F930E94180F88E00E948504182F90E06D
:100E5000F4E095958795FA95E1F79F938F9383EB4F
:100E600092E09F938F930E94180F1F701F921F9301
:100E70008EE792E09F938F930E94180F8DE10E945E
:100E80008504182F34E0839FF0011124E470FF27BC
:100E9000E756FC4F859194919F938F938EE692E055
:100EA0009F938F930E94180F11FB882780F9C82FFA
:100EB00090E0D92FFE01EE0FFF1FE756FC4F859102
:100EC00094912DB73EB7205E3F4F0FB6F8943EBFCA
:100ED0000FBE2DBF9F938F9386E592E09F938F93D4
:100EE0000E94180F8CE10E9485040F900F900F90C4
:100EF0000F9012FBEE27E0F9811101C0E0E0F0E075
:100F0000EE0FFF1FE756FC4F859194919F938F93AF
:100F100080E492E09F938F930E94180F81E00E94DB
:100F200085040F900F900F900F908F3311F0811167
:100F300088C0E1E0F0E0811102C0F0E0E0E0EE0FF7
:100F4000FF1FE756FC4F859194919F938F9387E203
:100F500092E09F938F930E94180F0F900F900F9025
:100F60000F9080E00E9485048093BD0280FF98C0AE
:100F700082E51F928F938AEE91E09F938F930E9458
:100F8000180F60E18EED91E00E94BC0582E00E94A6
:100F900085040F900F900F900F90D0E0C0E0682E66
:100FA000712C0BEC11E099ECE92E91E0F92E24EC78
:100FB000C22E21E0D22E3CEBA32E31E0B32E49EB22
:100FC000842E41E0942EF3010C2E02C0F595E79596
:100FD0000A94E2F7E170FF273396EE0FFF1FE75602
:100FE000FC4F859194919F938F93DF93CF931F93A1
:100FF0000F930E94180F4C2E8AE0480E0F900F900E
:101000000F900F900F900F90C23008F04BC0642DDE
:101010008AEC91E00E94BC052196C630D10599F674
:10102000DF91CF911F910F91FF90EF90DF90CF90C4
:10103000BF90AF909F908F907F906F905F904F90F8
:10104000089551E380FF50E341E381FF40E331E342
:1010500082FF30E321E383FF20E391E384FF90E309
:1010600085FF1CC081E31F925F931F924F931F92D5
:101070003F931F922F931F929F931F928F9380E015
:1010800092E09F938F930E94180F8DB79EB70E9694
:101090000FB6F8949EBF0FBE8DBF63CF80E3E3CF42
:1010A00084E567CFFF92EF92DF92CF920E94180FF4
:1010B000842D0E9485041F928F93BF92AF920E944D
:1010C000180F9F928F920E94180F2DB73EB7265F80
:1010D0003F4F0FB6F8943EBF0FBE2DBF9DCFFC0112
:1010E00001900020E9F73197AF01481B590BBC0173
:1010F0008EE092E00C9417030F931F93CF93DF932E
:101100008C01D0E0C0E0F801EC0FFD1F6491662374
:1011100041F08EE092E00E94B703892B11F02196F6
:10112000F2CF84E291E00E946F088C0F9D1FDF9147
:10113000CF911F910F910895CF93DF930E946F0875
:10114000EC0184E291E00E946F088C0F9D1FDF91FB
:10115000CF910895EF92FF920F931F93CF93DF9358
:101160008091DD019091DE01EC0197FD6F9655E0D5
:10117000D595C7955A95E1F760E270E00E943A1361
:10118000F82EE82E80E00E94D602E091C402F09191
:10119000C502E230F10538F0EE0FFF1FEE0FFF1F22
:1011A00035973197F1F78091C002882319F081EECD
:1011B0000E9478046091BD026E7F6093BD0280E062
:1011C0000E94D50482E00E948504E5E3F4E0E49106
:1011D00061E070E001C0660FEA95EAF7682B82E0F3
:1011E0000E94D50410E000E081E00C2E000CDD0B25
:1011F0000C171D0784F4882359F060E2C80135E01C
:10120000880F991F3A95E1F783589E4F0E94320547
:101210000F5F1F4FEDCFEE2051F181111DC061E036
:1012200085E00E9491028DEF90E00E947C0870E0C2
:1012300060E084E494E00E94CD0E0E9423060E94A8
:1012400013051092DE011092DD01DF91CF911F9105
:101250000F91FF90EF900895CE0125E0880F991F20
:101260002A95E1F76F2D83589E4F0E943205811118
:10127000E6CFD5CF1F920F920FB60F9211242F9366
:101280003F938F939F93AF93BF938091060290916A
:101290000702A0910802B09109023091050223E0F3
:1012A000230F2D3758F50196A11DB11D209305027E
:1012B0008093060290930702A0930802B09309025C
:1012C00080910A0290910B02A0910C02B0910D0244
:1012D0000196A11DB11D80930A0290930B02A09369
:1012E0000C02B0930D02BF91AF919F918F913F91EE
:1012F0002F910F900FBE0F901F90189526E8230F87
:101300000296A11DB11DD2CF1F920F920FB60F9260
:1013100011242F933F934F935F936F937F938F93FA
:101320009F93AF93BF93EF93FF938EE092E00E9461
:101330009503FF91EF91BF91AF919F918F917F9115
:101340006F915F914F913F912F910F900FBE0F9032
:101350001F9018951F920F920FB60F9211242F9382
:101360008F939F93EF93FF93E0911E02F0911F02E2
:101370008081E0912402F091250282FD1BC09081C2
:10138000809127028F5F8F7320912802821741F08E
:10139000E0912702F0E0E25FFD4F958F80932702F6
:1013A000FF91EF919F918F912F910F900FBE0F9012
:1013B0001F9018958081F4CFEEE0F2E01382128244
:1013C00088EE93E0A0E0B0E084839583A683B783A2
:1013D00086E191E09183808385EC90E09587848716
:1013E00084EC90E09787868780EC90E0918B808BEF
:1013F00081EC90E0938B828B82EC90E0958B848BD8
:1014000086EC90E0978B868B118E128E138E148E45
:10141000ECEAF2E087E090E09383828388E090E05A
:101420009583848380E896E9A8E9B0E08683978372
:10143000A087B18780E28387128A138A85E0858B33
:1014400081E0868B85E090E0A0E0B0E0848F958F0E
:10145000A68FB78F8BEA92E09183808314860895DC
:10146000CF93DF93CDB7DEB7A7970FB6F894DEBF63
:101470000FBECDBF789484B5826084BD84B5816091
:1014800084BD85B5826085BD85B5816085BD80914F
:101490006E00816080936E001092810080918100C7
:1014A00082608093810080918100816080938100BF
:1014B000809180008160809380008091B100846081
:1014C0008093B1008091B00081608093B0008091E2
:1014D0007A00846080937A0080917A0082608093A1
:1014E0007A0080917A00816080937A0080917A00FE
:1014F000806880937A001092C100E0911E02F09102
:101500001F0282E08083E0911A02F0911B02108298
:10151000E0911C02F0911D0280E18083109226026E
:10152000E0912202F091230286E08083E091200284
:10153000F0912102808180618083E0912002F0910E
:101540002102808188608083E0912002F091210255
:10155000808180688083E0912002F0912102808167
:101560008F7D80831FB7F89480917001811124C012
:10157000EBE9F1E08491EFEAF1E09491E82FF0E0FB
:10158000EE0FFF1FE957FE4FA591B491EC91E923AF
:1015900021F461E08AE00E9491028AE00E944902FF
:1015A0008CB580618CBD8CB580648CBD8DE00E9453
:1015B00049028BE00E944902809170018F5F809305
:1015C00070011FBF8091AE029091AF028F3F9807CC
:1015D00009F429C12091B0023091B1022F3F3207A6
:1015E00009F421C18217930731F00E9449028091CA
:1015F000B0020E94490280E00E94D60281E00E946F
:10160000BF020E94E6024B015C01F5E0CF2ED12C17
:10161000E12CF12C0E94E602681979098A099B09DC
:10162000683E734081059105A8F381E0C81AD1088E
:10163000E108F108A8EE8A0EA3E09A1EA11CB11CD5
:10164000C114D104E104F10429F76FE584E00E949C
:10165000D50486E00E94850445E550E060E070E036
:101660004093C4025093C5026093C6027093C702B0
:10167000682F677D86E00E94D50486E00E9485047D
:101680008DE10E948504182F0E94C9048DE10E94FB
:10169000850491E0181390E09093BE02882341F0F6
:1016A000181302C00E94C90460E08DE10E94D504B5
:1016B0001092C00260E08CE10E94D5041092C20238
:1016C0006FE381E00E94D50463E082E00E94D504CC
:1016D00080E28093B70211E16091B702812F0E94EE
:1016E000D5041F5F1731C1F763E083E00E94D50482
:1016F00085E08093C1026CE40E94D50460E787E036
:101700000E94D50482EE0E94780481EE0E94780443
:101710006CE080E00E94D50480E00E948504809304
:10172000BD020E9404058091BD028E3009F07BC08D
:1017300089E191E00E947C0886E00E948504887F10
:10174000682F636086E00E94D50480E28093B70230
:1017500011E16091B702812F0E94D5041F5F1731FC
:10176000C1F70E94B70460E071E081E00E949D052E
:101770004091C10250E066E071E088EB92E00E9487
:101780008A1381E08093BF0266E071E080E00E94EE
:101790009D050E94130586E00E94490285E00E9493
:1017A00049026E01E7E2CE0ED11C6BEA462E61E0E3
:1017B000562E77E9A72E71E0B72EEE24E394F12C94
:1017C00044E6242E50E0852E50E0952E8FEF0E94A7
:1017D00078048091B60290E0959587958770863061
:1017E00008F041C27090B7028091C202672C882332
:1017F00029F0F0E2F71510F420E2622E0E94500466
:1018000081E60E9424048093B60203EE11E06A94FC
:101810002FEF621609F418C28FEF0E942404D8013A
:101820008D938D01F4CF86E391E00E947C08FFCF79
:1018300047E050E06AE371E08DE791E00E949A137F
:10184000892B09F091C060918501809184010E94EB
:101850002B048EA360918701809186010E942B0446
:101860008DA360918901809188010E942B048CA333
:1018700060918B0180918A010E942B048BA360915F
:101880008D0180918C010E942B048AA31FA282E407
:1018900091E00E946F088E010E5D1F4F302E612E69
:1018A000F80141918F0150E070E060E019A2FE0163
:1018B000B196DB01CA018F709927AA27BB2794E054
:1018C00076956795579547959A95D1F78A300CF09C
:1018D00049C0805D8293411551056105710549F745
:1018E000309719F0CF010E946F08C016D106C1F6DB
:1018F00084E291E00E946F0880917101882341F099
:1019000082E391E00E949C0861E085E00E949102E0
:10191000632D762D80E091E00E949313632D762D48
:1019200086E091E00E94931381E00E94E80460E069
:1019300071E081E00E949D054091C10250E066E0A7
:1019400071E088EB92E00E948A1381E08093BF02ED
:1019500066E071E080E00E949D050E94B7040E944D
:10196000130514C2895CB6CF48E050E060E571E031
:101970008DE791E00E949A13892B09F040C0609195
:101980008601809185010E942B048D8360918801DE
:10199000809187010E942B048C8360918A01809141
:1019A00089010E942B048B8360918C0180918B01B3
:1019B0000E942B048A8360918E0180918D010E9488
:1019C0002B0489831E8280917101882341F082E378
:1019D00091E00E949C0861E085E00E949102BE01B6
:1019E0006F5F7F4F80E091E00E94931381E00E943F
:1019F000E80460E071E081E00E949D05B0CF48E01E
:101A000050E069E571E08DE791E00E949A13892B1F
:101A100009F051C060918601809185010E942B04DC
:101A20008D8360918801809187010E942B048C83B3
:101A300060918A01809189010E942B048B836091BF
:101A40008C0180918B010E942B048A8360918E010E
:101A500080918D010E942B0489831E8280917101E7
:101A6000882341F082E391E00E949C0861E085E0D8
:101A70000E949102BE016F5F7F4F86E091E00E945D
:101A8000931381E00E94E8040E94B70460E071E0D3
:101A900081E00E949D054091C10250E066E071E046
:101AA00088EB92E00E948A1381E08093BF0266E097
:101AB00071E080E0A1CF49E050E062E671E08DE79F
:101AC00091E00E949A13892B49F470E060E084E46D
:101AD00094E00E94CD0E0E9423065CC143E050E0DA
:101AE0006CE671E08DE791E00E949A13892B09F072
:101AF00051C187E391E00E949C081092DE01109290
:101B0000DD01EDE7F1E080E6DF011D928A95E9F75E
:101B100010927C01BBE27B1227C0F0927701E09229
:101B200076011BC0EBE27E121FC08091760190917E
:101B3000770101969093770180937601039769F47A
:101B40000E940B03609378017093790180937A016E
:101B500090937B0181E080937C018091DD019091E5
:101B6000DE01809744F409C010927701109276014B
:101B7000FAE07F12F2CF0E94AA088091DD019091D5
:101B8000DE01892BA9F00E940B030091DF01109167
:101B9000E0012091E1013091E201601B710B820BA9
:101BA000930B653F71408105910510F00E94AA08D2
:101BB0000E940B0300917201109173012091740136
:101BC00030917501601B710B820B930B603D774068
:101BD0008105910568F10E940B0360937201709377
:101BE00073018093740190937501E9E6F1E08491AB
:101BF000F2011491F501049170E060E0002399F086
:101C000081110E946802E02FF0E0EE0FFF1FE75AFB
:101C1000FE4FA591B4918C91182391E080E009F4D6
:101C200090E0692F782FF1E06F2786E00E94910203
:101C30008114910409F4CACD0E948103882309F418
:101C4000BFCD0E940000BCCD0E94D30260E487E0BB
:101C50000E94D504E72DF0E0ED51FE4F118283EE96
:101C600091E00E946F088EE092E00E947503892B3C
:101C700009F483CF0091DD011091DE010E940B0376
:101C80006093DF017093E0018093E1019093E201A2
:101C90008EE092E00E945303782EF801E358FE4F45
:101CA00080830F5F1F4F1093DE010093DD01809151
:101CB0007C01882309F436CF0E940B030091780140
:101CC0001091790120917A0130917B01601B710B99
:101CD000820B930B683E73408105910508F418CF81
:101CE000E1E47E1215CF70927D0187E291E00E94BF
:101CF0009C0801E010E003581E4F8EE092E00E9425
:101D00007503892BD1F38EE092E00E945303682E75
:101D1000D8018D938D01FD01ED57F140BAE08B1391
:101D2000ECCFE358FE4F108246E050E06BE271E0EA
:101D30008DE791E00E949A13892B09F079CD90915B
:101D4000830180ED890F8A30A8F48091840120ED11
:101D5000280F2A3078F46091850120ED260F2A3073
:101D600048F4605D929D600D1124869D600D1124E4
:101D70006E3748F082E391E00E949C0861E085E0C4
:101D80000E9491026DE785E00E94D50487E391E00F
:101D90000E949C0810E000E0AECF0F931F93CF93FA
:101DA000DF93009759F46115710541F4F0E0E0E02C
:101DB000CF01DF91CF911F910F9108958B01EC011D
:101DC0006EE070E081E090E00E941711FC01892B29
:101DD00069F380E883830115110571F01387028789
:101DE00081E883838091CC029091CD02892B21F4EC
:101DF000F093CD02E093CC022097D1F2D187C08737
:101E00008381826083838091CE029091CF02892B5F
:101E100079F6F093CF02E093CE028091D0029091B8
:101E2000D102892B29F6F093D102E093D002C0CFE2
:101E3000B0E0A0E0EEE1FFE00C941113AE01495FC9
:101E40005F4FDA016D917D91AD010CEC12E0F8016C
:101E500082819381DC0113962C911397286013964D
:101E60002C930E943D0FD8011296ED91FC91238195
:101E7000277F2383E4E00C942D13ABE0B0E0E3E490
:101E8000FFE00C9403137C013B018A01FC011782E3
:101E90001682838181FFC8C1CE0101965C01F701E2
:101EA0009381F30193FD859193FF81913F018823F5
:101EB00009F453C1853239F493FD859193FF8191E3
:101EC0003F01853229F4B70190E00E947512E7CFF7
:101ED000912C212C312CFFE1F31538F08B3211F1CC
:101EE00090F4803209F1833229F137FC3CC020EDB7
:101EF000280F2A3050F536FE20C08AE0989E200D2B
:101F00001124922E06C08D3291F0803371F76894BF
:101F100030F8F30193FD859193FF81913F01811189
:101F2000DACF21C0689431F8689432F8F2CF68941F
:101F300033F8EFCF689434F8ECCFEAE02E9E200D12
:101F40001124222E689435F8E4CF8E3229F436FC21
:101F500004C1689436F8DDCF8C3619F4689437F8EC
:101F6000D8CF8836B1F2982F9F7D95549330E0F00A
:101F70008336A1F18337C1F1833509F063C02801AD
:101F8000F2E04F0E511CF801C080D180692D70E045
:101F900036FC02C06FEF7FEFC6010E9458124C0161
:101FA000689437F882010AC00C5F1F4FFFE3F98382
:101FB00088248394912C6501E89437F833FE2DC072
:101FC000522C8114910471F5552009F468CFB701A2
:101FD00080E290E00E9475125A94F6CFF801808159
:101FE00089830E5F1F4FE4CF2801F2E04F0E511C92
:101FF000F801C080D180692D70E036FC02C06FEF1F
:102000007FEFC6010E946A124C018201D5CFB70151
:1020100080E290E00E9475122A942814190409F0B5
:10202000B0F7CECFF60137FC859137FE81916F0175
:10203000B70190E00E94751251105A94F1E08F1A86
:102040009108BFCF843619F0893609F077C0F801BE
:1020500037FE6BC060817181828193810C5F1F4F5D
:10206000F32DFF763F2E97FF09C0909580957095D0
:1020700061957F4F8F4F9F4F689437F82AE030E08B
:10208000A5010E94A512C82ECA188C2C432C36FE1E
:102090000CC0E89440F8C91440F434FE05C032FC8A
:1020A00003C0F32DFE7E4F2E892C44FE95C0FE0109
:1020B000EC0DF11D8081803309F087C0242D297E2D
:1020C000422E842D8870582E43FC95C040FE8FC050
:1020D0009C2C821418F42C0C922C981844FE91C05D
:1020E000B70180E390E00E94751242FE09C088E7C4
:1020F00090E041FE02C088E590E0B7010E947512B1
:10210000C91408F48AC0CA94D12C9FEFC91AD90AFD
:10211000CA0CDB1CF60182916F01B70190E00E94AE
:102120007512AC14BD04B1F74FCF60817181072ED9
:10213000000C880B990B0E5F1F4F92CFD32CE894A5
:10214000D4F82AE030E0853739F1232D297FD22ECB
:102150008F3601F148F48835A9F0F701868197811F
:102160002B96E2E10C941F13803749F08837A9F7CA
:10217000D4FE02C06894D2F820E130E00DC068942B
:10218000D4F8F6CF34FE03C0822F8660D82E20E12B
:1021900032E002C028E030E0F801D7FE0FC06081D5
:1021A0007181828193810C5F1F4FA5010E94A5124E
:1021B000C82ECA183D2CE89437F867CF608171812A
:1021C00090E080E00E5F1F4FF0CF42FC02C083948E
:1021D00078CF8394839475CF842D867809F471CF5A
:1021E000F6CFB70180E290E00E94751283948214CA
:1021F000C0F3512C73CF522C5818821408F46ECFB0
:10220000F8CF842D867809F47BCF8BE241FE80E203
:1022100047FC8DE2B70190E071CFB70180E390E019
:102220000E9475129A946CCF8FEF9FEF99CF0F9306
:102230001F93CF93DF93869F8001879F100D969FFA
:10224000100D1124C8010E943311EC01009729F0F0
:10225000A80170E060E00E946312CE01DF91CF918F
:102260001F910F9108950F931F93CF93DF938230A7
:10227000910510F482E090E0E091D402F091D50253
:1022800030E020E0B0E0A0E0309799F4211531056E
:1022900009F44AC0281B390B24303105D8F58A814E
:1022A0009B816115710589F1FB0193838283FE0196
:1022B00011C0408151810281138148175907E0F014
:1022C0004817590799F4109761F012960C931297DA
:1022D00013961C933296CF01DF91CF911F910F91EE
:1022E00008950093D4021093D502F4CF211531053F
:1022F00051F04217530738F0A901DB019A01BD01E3
:10230000DF01F801C1CFEF01F9CF9093D50280939F
:10231000D402CDCFFE01E20FF31F8193919322509F
:10232000310939832883D7CF2091D2023091D3024B
:10233000232B41F420910E0130910F013093D302F1
:102340002093D20220910C0130910D01211531050D
:1023500041F42DB73EB74091100150911101241B5B
:10236000350BE091D202F091D302E217F307A0F40B
:102370002E1B3F0B2817390778F0AC014E5F5F4FDB
:102380002417350748F04E0F5F1F5093D302409338
:10239000D202819391939FCFF0E0E0E09CCFCF9366
:1023A000DF930097E9F0FC01329713821282A0912B
:1023B000D402B091D502ED0130E020E01097A1F4F5
:1023C00020813181820F931F2091D2023091D3025C
:1023D0002817390709F061C0F093D302E093D202C5
:1023E000DF91CF910895EA01CE17DF07E8F54A8122
:1023F0005B819E0141155105B1F7E901FB83EA8339
:1024000049915991C40FD51FEC17FD0761F48081E4
:1024100091810296840F951FE901998388838281B7
:1024200093819B838A83F0E0E0E012968D919C91EA
:1024300013970097B9F52D913C911197CD01029614
:10244000820F931F2091D2023091D30228173907AF
:1024500039F6309751F51092D5021092D402B0930C
:10246000D302A093D202BCCFD383C28340815181D7
:10247000840F951FC817D90761F44E5F5F4F88819D
:102480009981480F591F518340838A819B8193838F
:1024900082832115310509F0B0CFF093D502E09386
:1024A000D4029ECFFD01DC01C0CF13821282D7CFB0
:1024B000FC010590615070400110D8F7809590950F
:1024C0008E0F9F1F0895DC0101C06D934150504055
:1024D000E0F70895FC016150704001900110D8F7B9
:1024E000809590958E0F9F1F08950F931F93CF9304
:1024F000DF93182F092FEB018B8181FD09C01FEF9E
:102500000FEF812F902FDF91CF911F910F910895A1
:1025100082FF14C02E813F818C819D81281739074D
:102520003CF4E881F981CF01019699838883108377
:102530008E819F8101969F838E83E3CFE885F98505
:10254000812F0995892BA1F3DACFFA01AA27283028
:1025500051F1203181F1E8946F936E7F6E5F7F4F70
:102560008F4F9F4FAF4FB1E03ED0B4E03CD0670FEC
:10257000781F891F9A1FA11D680F791F8A1F911D3F
:10258000A11D6A0F711D811D911DA11D20D009F48F
:1025900068943F912AE0269F11243019305D3193D1
:1025A000DEF6CF010895462F4770405D4193B3E0BA
:1025B0000FD0C9F7F6CF462F4F70405D4A3318F061
:1025C000495D31FD4052419302D0A9F7EACFB4E012
:1025D000A6959795879577956795BA95C9F70097CA
:1025E0006105710508959B01AC010A2E069457956B
:1025F000479537952795BA95C9F7620F731F841FC2
:10260000951FA01D08952F923F924F925F926F9257
:102610007F928F929F92AF92BF92CF92DF92EF9272
:10262000FF920F931F93CF93DF93CDB7DEB7CA1BF3
:10263000DB0B0FB6F894DEBF0FBECDBF09942A881E
:10264000398848885F846E847D848C849B84AA84C6
:10265000B984C884DF80EE80FD800C811B81AA8153
:10266000B981CE0FD11D0FB6F894DEBF0FBECDBF1E
:10267000ED01089597FB072E16F4009407D077FD1F
:1026800009D00E94701307FC05D03EF49095819507
:102690009F4F0895709561957F4F0895A1E21A2E7E
:1026A000AA1BBB1BFD010DC0AA1FBB1FEE1FFF1FF6
:1026B000A217B307E407F50720F0A21BB30BE40B46
:1026C000F50B661F771F881F991F1A9469F760958D
:1026D0007095809590959B01AC01BD01CF01089547
:1026E000AA1BBB1B51E107C0AA1FBB1FA617B70738
:1026F00010F0A61BB70B881F991F5A95A9F7809554
:102700009095BC01CD010895EE0FFF1F0590F49147
:10271000E02D0994FB01DC0102C001900D924150B3
:102720005040D8F70895FB01DC0101900D92002084
:10273000E1F70895FB01DC014150504030F08D91EC
:102740000190801919F40020B9F7881B990B08959E
:10275000F894FFCFC2C2C2C2C200C2C2C2C2C2008B
:102760000000D602800000000000B70317034403F6
:1027700004047503530367030D0A00434D440041ED
:10278000542B434820004641494C004F4B004154D4
:102790002B41444420004E65772041646472657388
:1027A000733A200041542B52414444200041542BA1
:1027B00054414444200041542B5354415455530038
:0427C0004154300050
:107E0000112484B714BE81FFF0D085E080938100F7
:107E100082E08093C00088E18093C10086E0809377
:107E2000C20080E18093C4008EE0C9D0259A86E02C
:107E300020E33CEF91E0309385002093840096BBD3
:107E4000B09BFECF1D9AA8958150A9F7CC24DD24C4
:107E500088248394B5E0AB2EA1E19A2EF3E0BF2EE7
:107E6000A2D0813461F49FD0082FAFD0023811F036
:107E7000013811F484E001C083E08DD089C08234E0
:107E800011F484E103C0853419F485E0A6D080C0E4
:107E9000853579F488D0E82EFF2485D0082F10E0AE
:107EA000102F00270E291F29000F111F8ED06801E7
:107EB0006FC0863521F484E090D080E0DECF843638
:107EC00009F040C070D06FD0082F6DD080E0C81688
:107ED00080E7D80618F4F601B7BEE895C0E0D1E017
:107EE00062D089930C17E1F7F0E0CF16F0E7DF06D8
:107EF00018F0F601B7BEE89568D007B600FCFDCFD4
:107F0000A601A0E0B1E02C9130E011968C91119780
:107F100090E0982F8827822B932B1296FA010C0160
:107F200087BEE89511244E5F5F4FF1E0A038BF0790
:107F300051F7F601A7BEE89507B600FCFDCF97BE46
:107F4000E89526C08437B1F42ED02DD0F82E2BD052
:107F50003CD0F601EF2C8F010F5F1F4F84911BD097
:107F6000EA94F801C1F70894C11CD11CFA94CF0C13
:107F7000D11C0EC0853739F428D08EE10CD085E9AC
:107F80000AD08FE07ACF813511F488E018D01DD067
:107F900080E101D065CF982F8091C00085FFFCCF94
:107FA0009093C60008958091C00087FFFCCF809118
:107FB000C00084FD01C0A8958091C6000895E0E648
:107FC000F0E098E1908380830895EDDF803219F02E
:107FD00088E0F5DFFFCF84E1DECF1F93182FE3DFCA
:107FE0001150E9F7F2DF1F91089580E0E8DFEE27F6
:047FF000FF270994CA
:027FFE00040479
:00000001FF
